:10000000C8EF00F0EA6A080EE96EEF500EE0010E4C
:10001000016E006A002EFED7012EFBD74A0E006E3D
:10002000002EFED700D0EF2EF2D7120094908B80D6
:100030000A0E086EE7DF94908B902DEF00F0010E12
:10004000076E076E075080080BE30650071402E1A5
:100050008B9201D08B829492E9D7D8900736F2D751
:10006000E5EF00F0949C8B9C080E016E00D0000020
:10007000018E0ED0019E0C32D8B08B8CD8A08B9CF8
:10008000018C06D0019C012EF6D700D000008B8C8D
:100090001C0EE96EE92EFED700D001BEEBD701BCE5
:1000A000F1D712000D50016A0C5C03E20CC000F0A5
:1000B0000CD0006A080E0E6E0C3600360D50005C37
:1000C000D8B0006E01360E2EF7D71200200E07A80A
:1000D000300E086E06C000F006AE08D0001E002AE2
:1000E00000C006F02D0E086E078E0780015006C076
:1000F0000CF0640E0D6ED6DF00C006F0300E012449
:10010000096E06C00CF00A0E0D6ECCDF300E002416
:100110000B6E300E01240A6E08C000F0300E095C30
:1001200004E0078207BE078412D008C009F0200E41
:10013000086E300E0A5C04E0078007BE078207D015
:10014000D8A4078004E109C00AF0200E096E07B4A4
:1001500005D007B206D007B007D009D008C00CF010
:1001600081DF09C00CF07EDF0AC00CF07BDF0BC022
:100170000CF078DFF0EF00F094948B940A0E086E88
:1001800041DF94948B840A0E086E3CDFF8EF00F098
:10019000F86AD09E949C8B8C000E7E6EC198C19A9A
:1001A0007F50E00B7F6E799A79987A6A7B6A056A4C
:1001B00094948B840A0E086E25DF010E056E05509F
:1001C0000A0818E305C006F03AD70A0E0C6E4ADF9B
:1001D0000D0E0C6E47DF05C006F0180E076E76D7C1
:1001E000030E066EFA0E086E0DDF062EFBD7C4D77F
:0A01F000052AE5D7000E016E03009A
:020000040030CA
:0E00000000CF1E1E008F81000FC00FE00F40CA
:00000001FF
;PIC18F45K20
;CRC=D9A5  CREATED="30-Mar-14 20:21"
